:100000002728FF3FFF3F831203132C088A002B0889
:100010008200080003208A110A128000840AAB0AB9
:100020000319AC0AF003031D0A2808008312031306
:10003000F8010830FC00700DF80D7408F802031880
:100040002328F8070310F00DFC0B1B28080083126F
:100050000313A0013F30A1000630A2005B30A300D3
:100060004F30A4006630A5006D30A6007D30A7009B
:100070000730A8007F30A9006730AA008316031755
:100080008901880183128813881B4828871349280F
:1000900087178316031387018312870183160510C0
:1000A00085108515051683120514851485196A288F
:1000B000051A62282008633A031D6028A001612800
:1000C000A00A6A282008003A031D69286330A000AE
:1000D0006A28A0030A30F4002008F00016207808EF
:1000E000F0007008213E84000008870005100230EF
:1000F000FB000430FC00BA30FD00FD0B7D28FC0B3A
:100100007D28FB0B7D28000005140A30F400200830
:10011000F00016207008213E84000008870085103A
:100120000230FB000430FC00BA30FD00FD0B9628C5
:10013000FC0B9628FB0B96280000851456289F2858
:04400E00F42F000784
:00000001FF
