:100000002728FF3FFF3F831203132C088A002B0889
:100010008200080003208A110A128000840AAB0AB9
:100020000319AC0AF003031D0A2808008312031306
:10003000F8010830FC00700DF80D7408F802031880
:100040002328F8070310F00DFC0B1B280800C03014
:1000500083120313A000F930A100A430A200B03035
:10006000A3009930A4009230A5008230A600F83099
:10007000A7008030A8009830A900AA0183160317B2
:100080008901880183128813881B4828871349280F
:1000900087178316031387018312870183160510C0
:1000A00085108515051683120514851485196A288F
:1000B000051A62282A08633A031D6028AA016128EC
:1000C000AA0A6A282A08003A031D69286330AA0090
:1000D0006A28AA030A30F4002A08F00016207808DB
:1000E000F0007008203E84000008870005100830EA
:1000F000FC00C930FD00FD0B7B28FC0B7B280000B9
:10010000000005140A30F4002A08F00016207008D8
:10011000203E84000008870085100830FC00C930AC
:10012000FD00FD0B9128FC0B9128000000008514B8
:1001300056289928FF3FFF3FFF3FFF3FFF3FFF3F0C
:04400E00F42F000784
:00000001FF
