:100000008228FF3FFF3F831203132D088A002C082C
:100010008200080003208A110A128000840AAC0AB8
:100020000319AD0AF003031D0A2808008312031305
:1000300005108510300803193F282008213E840050
:100040000008850085140430FC00E430FD00FD0B41
:100050002728FC0B2728000085102B08213E840050
:100060000008850005140430FC00E430FD00FD0BA1
:100070003728FC0B372800000510B0031A280800A9
:10008000831203132008093A0130031D0030F100E8
:100090002B08093A0130031D0030F0007108F0050B
:1000A00003195528A001AB016128A00A20080A3ACB
:1000B000031D6128A001AB0A2B080A3A031D612821
:1000C000AB010800831203132008003A0130031D1E
:1000D0000030F1002B08003A0130031D0030F00021
:1000E0007108F005031979280930A0000930AB0028
:1000F0008128A0032008633A031D81280930A0004D
:10010000AB03080083120313A001C030A100F93033
:10011000A200A430A300B030A4009930A500923012
:10012000A6008230A700F830A8008030A9009830DF
:10013000AA00AB0183160317890188018312881373
:10014000881BA4288713A528871783160313870104
:1001500083128701831605108510851505168312F5
:1001600005148514051AB6287014B7287010051ADE
:10017000BB280310BC280314701CC228031CC2280F
:100180007014C3287010701CC82803130130AF000E
:100190004020AF01051ACE287014CF287010051A20
:1001A000D3280310D4280314701CDA28031CDA287F
:1001B0007014DB287010701CE02803130130AE00AF
:1001C0006220AE01051AE5284020051EE8286220BD
:1001D0001930B0001620B228EC28FF3FFF3FFF3F48
:04400E00F42F000784
:00000001FF
